{
  "_format": "hh-sol-artifact-1",
  "contractName": "Talon",
  "sourceName": "contracts/Talon.sol",
  "abi": [
    {
      "inputs": [],
      "stateMutability": "nonpayable",
      "type": "constructor"
    },
    {
      "anonymous": false,
      "inputs": [
        {
          "indexed": true,
          "internalType": "address",
          "name": "owner",
          "type": "address"
        },
        {
          "indexed": true,
          "internalType": "address",
          "name": "approved",
          "type": "address"
        },
        {
          "indexed": true,
          "internalType": "uint256",
          "name": "tokenId",
          "type": "uint256"
        }
      ],
      "name": "Approval",
      "type": "event"
    },
    {
      "anonymous": false,
      "inputs": [
        {
          "indexed": true,
          "internalType": "address",
          "name": "owner",
          "type": "address"
        },
        {
          "indexed": true,
          "internalType": "address",
          "name": "operator",
          "type": "address"
        },
        {
          "indexed": false,
          "internalType": "bool",
          "name": "approved",
          "type": "bool"
        }
      ],
      "name": "ApprovalForAll",
      "type": "event"
    },
    {
      "anonymous": false,
      "inputs": [
        {
          "indexed": true,
          "internalType": "address",
          "name": "from",
          "type": "address"
        },
        {
          "indexed": true,
          "internalType": "address",
          "name": "to",
          "type": "address"
        },
        {
          "indexed": true,
          "internalType": "uint256",
          "name": "tokenId",
          "type": "uint256"
        }
      ],
      "name": "Transfer",
      "type": "event"
    },
    {
      "inputs": [
        {
          "internalType": "address",
          "name": "to",
          "type": "address"
        },
        {
          "internalType": "uint256",
          "name": "tokenId",
          "type": "uint256"
        }
      ],
      "name": "approve",
      "outputs": [],
      "stateMutability": "nonpayable",
      "type": "function"
    },
    {
      "inputs": [
        {
          "internalType": "address",
          "name": "owner",
          "type": "address"
        }
      ],
      "name": "balanceOf",
      "outputs": [
        {
          "internalType": "uint256",
          "name": "",
          "type": "uint256"
        }
      ],
      "stateMutability": "view",
      "type": "function"
    },
    {
      "inputs": [
        {
          "internalType": "uint256",
          "name": "tokenId",
          "type": "uint256"
        }
      ],
      "name": "getApproved",
      "outputs": [
        {
          "internalType": "address",
          "name": "",
          "type": "address"
        }
      ],
      "stateMutability": "view",
      "type": "function"
    },
    {
      "inputs": [
        {
          "internalType": "address",
          "name": "owner",
          "type": "address"
        },
        {
          "internalType": "address",
          "name": "operator",
          "type": "address"
        }
      ],
      "name": "isApprovedForAll",
      "outputs": [
        {
          "internalType": "bool",
          "name": "",
          "type": "bool"
        }
      ],
      "stateMutability": "view",
      "type": "function"
    },
    {
      "inputs": [],
      "name": "name",
      "outputs": [
        {
          "internalType": "string",
          "name": "",
          "type": "string"
        }
      ],
      "stateMutability": "view",
      "type": "function"
    },
    {
      "inputs": [
        {
          "internalType": "uint256",
          "name": "tokenId",
          "type": "uint256"
        }
      ],
      "name": "ownerOf",
      "outputs": [
        {
          "internalType": "address",
          "name": "",
          "type": "address"
        }
      ],
      "stateMutability": "view",
      "type": "function"
    },
    {
      "inputs": [
        {
          "internalType": "address",
          "name": "to",
          "type": "address"
        },
        {
          "internalType": "uint256",
          "name": "tokenId",
          "type": "uint256"
        }
      ],
      "name": "safeMint",
      "outputs": [],
      "stateMutability": "nonpayable",
      "type": "function"
    },
    {
      "inputs": [
        {
          "internalType": "address",
          "name": "from",
          "type": "address"
        },
        {
          "internalType": "address",
          "name": "to",
          "type": "address"
        },
        {
          "internalType": "uint256",
          "name": "tokenId",
          "type": "uint256"
        }
      ],
      "name": "safeTransferFrom",
      "outputs": [],
      "stateMutability": "nonpayable",
      "type": "function"
    },
    {
      "inputs": [
        {
          "internalType": "address",
          "name": "from",
          "type": "address"
        },
        {
          "internalType": "address",
          "name": "to",
          "type": "address"
        },
        {
          "internalType": "uint256",
          "name": "tokenId",
          "type": "uint256"
        },
        {
          "internalType": "bytes",
          "name": "_data",
          "type": "bytes"
        }
      ],
      "name": "safeTransferFrom",
      "outputs": [],
      "stateMutability": "nonpayable",
      "type": "function"
    },
    {
      "inputs": [
        {
          "internalType": "address",
          "name": "operator",
          "type": "address"
        },
        {
          "internalType": "bool",
          "name": "approved",
          "type": "bool"
        }
      ],
      "name": "setApprovalForAll",
      "outputs": [],
      "stateMutability": "nonpayable",
      "type": "function"
    },
    {
      "inputs": [
        {
          "internalType": "bytes4",
          "name": "interfaceId",
          "type": "bytes4"
        }
      ],
      "name": "supportsInterface",
      "outputs": [
        {
          "internalType": "bool",
          "name": "",
          "type": "bool"
        }
      ],
      "stateMutability": "view",
      "type": "function"
    },
    {
      "inputs": [],
      "name": "symbol",
      "outputs": [
        {
          "internalType": "string",
          "name": "",
          "type": "string"
        }
      ],
      "stateMutability": "view",
      "type": "function"
    },
    {
      "inputs": [
        {
          "internalType": "uint256",
          "name": "tokenId",
          "type": "uint256"
        }
      ],
      "name": "tokenURI",
      "outputs": [
        {
          "internalType": "string",
          "name": "",
          "type": "string"
        }
      ],
      "stateMutability": "view",
      "type": "function"
    },
    {
      "inputs": [
        {
          "internalType": "address",
          "name": "from",
          "type": "address"
        },
        {
          "internalType": "address",
          "name": "to",
          "type": "address"
        },
        {
          "internalType": "uint256",
          "name": "tokenId",
          "type": "uint256"
        }
      ],
      "name": "transferFrom",
      "outputs": [],
      "stateMutability": "nonpayable",
      "type": "function"
    }
  ],
  "bytecode": "0x60806040523480156200001157600080fd5b506040518060400160405280600581526020017f54414c4f4e0000000000000000000000000000000000000000000000000000008152506040518060400160405280600881526020017f544c4e3d3d545754000000000000000000000000000000000000000000000000815250816000908051906020019062000096929190620000b8565b508060019080519060200190620000af929190620000b8565b505050620001cd565b828054620000c69062000168565b90600052602060002090601f016020900481019282620000ea576000855562000136565b82601f106200010557805160ff191683800117855562000136565b8280016001018555821562000136579182015b828111156200013557825182559160200191906001019062000118565b5b50905062000145919062000149565b5090565b5b80821115620001645760008160009055506001016200014a565b5090565b600060028204905060018216806200018157607f821691505b602082108114156200019857620001976200019e565b5b50919050565b7f4e487b7100000000000000000000000000000000000000000000000000000000600052602260045260246000fd5b6128ff80620001dd6000396000f3fe608060405234801561001057600080fd5b50600436106100ea5760003560e01c806370a082311161008c578063a22cb46511610066578063a22cb4651461025b578063b88d4fde14610277578063c87b56dd14610293578063e985e9c5146102c3576100ea565b806370a08231146101f157806395d89b4114610221578063a14481941461023f576100ea565b8063095ea7b3116100c8578063095ea7b31461016d57806323b872dd1461018957806342842e0e146101a55780636352211e146101c1576100ea565b806301ffc9a7146100ef57806306fdde031461011f578063081812fc1461013d575b600080fd5b61010960048036038101906101049190611a6f565b6102f3565b6040516101169190611e52565b60405180910390f35b6101276103d5565b6040516101349190611e6d565b60405180910390f35b61015760048036038101906101529190611ac1565b610467565b6040516101649190611deb565b60405180910390f35b61018760048036038101906101829190611a33565b6104ec565b005b6101a3600480360381019061019e919061192d565b610604565b005b6101bf60048036038101906101ba919061192d565b610664565b005b6101db60048036038101906101d69190611ac1565b610684565b6040516101e89190611deb565b60405180910390f35b61020b600480360381019061020691906118c8565b610736565b604051610218919061206f565b60405180910390f35b6102296107ee565b6040516102369190611e6d565b60405180910390f35b61025960048036038101906102549190611a33565b610880565b005b610275600480360381019061027091906119f7565b61088e565b005b610291600480360381019061028c919061197c565b610a0f565b005b6102ad60048036038101906102a89190611ac1565b610a71565b6040516102ba9190611e6d565b60405180910390f35b6102dd60048036038101906102d891906118f1565b610a83565b6040516102ea9190611e52565b60405180910390f35b60007f80ac58cd000000000000000000000000000000000000000000000000000000007bffffffffffffffffffffffffffffffffffffffffffffffffffffffff1916827bffffffffffffffffffffffffffffffffffffffffffffffffffffffff191614806103be57507f5b5e139f000000000000000000000000000000000000000000000000000000007bffffffffffffffffffffffffffffffffffffffffffffffffffffffff1916827bffffffffffffffffffffffffffffffffffffffffffffffffffffffff1916145b806103ce57506103cd82610b17565b5b9050919050565b6060600080546103e490612294565b80601f016020809104026020016040519081016040528092919081815260200182805461041090612294565b801561045d5780601f106104325761010080835404028352916020019161045d565b820191906000526020600020905b81548152906001019060200180831161044057829003601f168201915b5050505050905090565b600061047282610b81565b6104b1576040517f08c379a00000000000000000000000000000000000000000000000000000000081526004016104a890611fcf565b60405180910390fd5b6004600083815260200190815260200160002060009054906101000a900473ffffffffffffffffffffffffffffffffffffffff169050919050565b60006104f782610684565b90508073ffffffffffffffffffffffffffffffffffffffff168373ffffffffffffffffffffffffffffffffffffffff161415610568576040517f08c379a000000000000000000000000000000000000000000000000000000000815260040161055f9061202f565b60405180910390fd5b8073ffffffffffffffffffffffffffffffffffffffff16610587610bed565b73ffffffffffffffffffffffffffffffffffffffff1614806105b657506105b5816105b0610bed565b610a83565b5b6105f5576040517f08c379a00000000000000000000000000000000000000000000000000000000081526004016105ec90611f2f565b60405180910390fd5b6105ff8383610bf5565b505050565b61061561060f610bed565b82610cae565b610654576040517f08c379a000000000000000000000000000000000000000000000000000000000815260040161064b9061204f565b60405180910390fd5b61065f838383610d8c565b505050565b61067f83838360405180602001604052806000815250610a0f565b505050565b6000806002600084815260200190815260200160002060009054906101000a900473ffffffffffffffffffffffffffffffffffffffff169050600073ffffffffffffffffffffffffffffffffffffffff168173ffffffffffffffffffffffffffffffffffffffff16141561072d576040517f08c379a000000000000000000000000000000000000000000000000000000000815260040161072490611f6f565b60405180910390fd5b80915050919050565b60008073ffffffffffffffffffffffffffffffffffffffff168273ffffffffffffffffffffffffffffffffffffffff1614156107a7576040517f08c379a000000000000000000000000000000000000000000000000000000000815260040161079e90611f4f565b60405180910390fd5b600360008373ffffffffffffffffffffffffffffffffffffffff1673ffffffffffffffffffffffffffffffffffffffff168152602001908152602001600020549050919050565b6060600180546107fd90612294565b80601f016020809104026020016040519081016040528092919081815260200182805461082990612294565b80156108765780601f1061084b57610100808354040283529160200191610876565b820191906000526020600020905b81548152906001019060200180831161085957829003601f168201915b5050505050905090565b61088a8282610fe8565b5050565b610896610bed565b73ffffffffffffffffffffffffffffffffffffffff168273ffffffffffffffffffffffffffffffffffffffff161415610904576040517f08c379a00000000000000000000000000000000000000000000000000000000081526004016108fb90611eef565b60405180910390fd5b8060056000610911610bed565b73ffffffffffffffffffffffffffffffffffffffff1673ffffffffffffffffffffffffffffffffffffffff16815260200190815260200160002060008473ffffffffffffffffffffffffffffffffffffffff1673ffffffffffffffffffffffffffffffffffffffff16815260200190815260200160002060006101000a81548160ff0219169083151502179055508173ffffffffffffffffffffffffffffffffffffffff166109be610bed565b73ffffffffffffffffffffffffffffffffffffffff167f17307eab39ab6107e8899845ad3d59bd9653f200f220920489ca2b5937696c3183604051610a039190611e52565b60405180910390a35050565b610a20610a1a610bed565b83610cae565b610a5f576040517f08c379a0000000000000000000000000000000000000000000000000000000008152600401610a569061204f565b60405180910390fd5b610a6b84848484611006565b50505050565b6060610a7c82611062565b9050919050565b6000600560008473ffffffffffffffffffffffffffffffffffffffff1673ffffffffffffffffffffffffffffffffffffffff16815260200190815260200160002060008373ffffffffffffffffffffffffffffffffffffffff1673ffffffffffffffffffffffffffffffffffffffff16815260200190815260200160002060009054906101000a900460ff16905092915050565b60007f01ffc9a7000000000000000000000000000000000000000000000000000000007bffffffffffffffffffffffffffffffffffffffffffffffffffffffff1916827bffffffffffffffffffffffffffffffffffffffffffffffffffffffff1916149050919050565b60008073ffffffffffffffffffffffffffffffffffffffff166002600084815260200190815260200160002060009054906101000a900473ffffffffffffffffffffffffffffffffffffffff1673ffffffffffffffffffffffffffffffffffffffff1614159050919050565b600033905090565b816004600083815260200190815260200160002060006101000a81548173ffffffffffffffffffffffffffffffffffffffff021916908373ffffffffffffffffffffffffffffffffffffffff160217905550808273ffffffffffffffffffffffffffffffffffffffff16610c6883610684565b73ffffffffffffffffffffffffffffffffffffffff167f8c5be1e5ebec7d5bd14f71427d1e84f3dd0314c0f7b2291e5b200ac8c7c3b92560405160405180910390a45050565b6000610cb982610b81565b610cf8576040517f08c379a0000000000000000000000000000000000000000000000000000000008152600401610cef90611f0f565b60405180910390fd5b6000610d0383610684565b90508073ffffffffffffffffffffffffffffffffffffffff168473ffffffffffffffffffffffffffffffffffffffff161480610d7257508373ffffffffffffffffffffffffffffffffffffffff16610d5a84610467565b73ffffffffffffffffffffffffffffffffffffffff16145b80610d835750610d828185610a83565b5b91505092915050565b8273ffffffffffffffffffffffffffffffffffffffff16610dac82610684565b73ffffffffffffffffffffffffffffffffffffffff1614610e02576040517f08c379a0000000000000000000000000000000000000000000000000000000008152600401610df990611fef565b60405180910390fd5b600073ffffffffffffffffffffffffffffffffffffffff168273ffffffffffffffffffffffffffffffffffffffff161415610e72576040517f08c379a0000000000000000000000000000000000000000000000000000000008152600401610e6990611ecf565b60405180910390fd5b610e7d8383836111b4565b610e88600082610bf5565b6001600360008573ffffffffffffffffffffffffffffffffffffffff1673ffffffffffffffffffffffffffffffffffffffff1681526020019081526020016000206000828254610ed891906121aa565b925050819055506001600360008473ffffffffffffffffffffffffffffffffffffffff1673ffffffffffffffffffffffffffffffffffffffff1681526020019081526020016000206000828254610f2f9190612123565b92505081905550816002600083815260200190815260200160002060006101000a81548173ffffffffffffffffffffffffffffffffffffffff021916908373ffffffffffffffffffffffffffffffffffffffff160217905550808273ffffffffffffffffffffffffffffffffffffffff168473ffffffffffffffffffffffffffffffffffffffff167fddf252ad1be2c89b69c2b068fc378daa952ba7f163c4a11628f55a4df523b3ef60405160405180910390a4505050565b6110028282604051806020016040528060008152506111b9565b5050565b611011848484610d8c565b61101d84848484611214565b61105c576040517f08c379a000000000000000000000000000000000000000000000000000000000815260040161105390611e8f565b60405180910390fd5b50505050565b606061106d82610b81565b6110ac576040517f08c379a00000000000000000000000000000000000000000000000000000000081526004016110a390611faf565b60405180910390fd5b60006006600084815260200190815260200160002080546110cc90612294565b80601f01602080910402602001604051908101604052809291908181526020018280546110f890612294565b80156111455780601f1061111a57610100808354040283529160200191611145565b820191906000526020600020905b81548152906001019060200180831161112857829003601f168201915b5050505050905060006111566113ab565b905060008151141561116c5781925050506111af565b6000825111156111a1578082604051602001611189929190611dc7565b604051602081830303815290604052925050506111af565b6111aa846113c2565b925050505b919050565b505050565b6111c38383611469565b6111d06000848484611214565b61120f576040517f08c379a000000000000000000000000000000000000000000000000000000000815260040161120690611e8f565b60405180910390fd5b505050565b60006112358473ffffffffffffffffffffffffffffffffffffffff16611637565b1561139e578373ffffffffffffffffffffffffffffffffffffffff1663150b7a0261125e610bed565b8786866040518563ffffffff1660e01b81526004016112809493929190611e06565b602060405180830381600087803b15801561129a57600080fd5b505af19250505080156112cb57506040513d601f19601f820116820180604052508101906112c89190611a98565b60015b61134e573d80600081146112fb576040519150601f19603f3d011682016040523d82523d6000602084013e611300565b606091505b50600081511415611346576040517f08c379a000000000000000000000000000000000000000000000000000000000815260040161133d90611e8f565b60405180910390fd5b805181602001fd5b63150b7a0260e01b7bffffffffffffffffffffffffffffffffffffffffffffffffffffffff1916817bffffffffffffffffffffffffffffffffffffffffffffffffffffffff1916149150506113a3565b600190505b949350505050565b606060405180602001604052806000815250905090565b60606113cd82610b81565b61140c576040517f08c379a00000000000000000000000000000000000000000000000000000000081526004016114039061200f565b60405180910390fd5b60006114166113ab565b905060008151116114365760405180602001604052806000815250611461565b806114408461164a565b604051602001611451929190611dc7565b6040516020818303038152906040525b915050919050565b600073ffffffffffffffffffffffffffffffffffffffff168273ffffffffffffffffffffffffffffffffffffffff1614156114d9576040517f08c379a00000000000000000000000000000000000000000000000000000000081526004016114d090611f8f565b60405180910390fd5b6114e281610b81565b15611522576040517f08c379a000000000000000000000000000000000000000000000000000000000815260040161151990611eaf565b60405180910390fd5b61152e600083836111b4565b6001600360008473ffffffffffffffffffffffffffffffffffffffff1673ffffffffffffffffffffffffffffffffffffffff168152602001908152602001600020600082825461157e9190612123565b92505081905550816002600083815260200190815260200160002060006101000a81548173ffffffffffffffffffffffffffffffffffffffff021916908373ffffffffffffffffffffffffffffffffffffffff160217905550808273ffffffffffffffffffffffffffffffffffffffff16600073ffffffffffffffffffffffffffffffffffffffff167fddf252ad1be2c89b69c2b068fc378daa952ba7f163c4a11628f55a4df523b3ef60405160405180910390a45050565b600080823b905060008111915050919050565b60606000821415611692576040518060400160405280600181526020017f300000000000000000000000000000000000000000000000000000000000000081525090506117f2565b600082905060005b600082146116c45780806116ad906122f7565b915050600a826116bd9190612179565b915061169a565b60008167ffffffffffffffff811115611706577f4e487b7100000000000000000000000000000000000000000000000000000000600052604160045260246000fd5b6040519080825280601f01601f1916602001820160405280156117385781602001600182028036833780820191505090505b5090505b600085146117eb5760018261175191906121aa565b9150600a856117609190612340565b603061176c9190612123565b60f81b8183815181106117a8577f4e487b7100000000000000000000000000000000000000000000000000000000600052603260045260246000fd5b60200101907effffffffffffffffffffffffffffffffffffffffffffffffffffffffffffff1916908160001a905350600a856117e49190612179565b945061173c565b8093505050505b919050565b600061180a611805846120af565b61208a565b90508281526020810184848401111561182257600080fd5b61182d848285612252565b509392505050565b6000813590506118448161286d565b92915050565b60008135905061185981612884565b92915050565b60008135905061186e8161289b565b92915050565b6000815190506118838161289b565b92915050565b600082601f83011261189a57600080fd5b81356118aa8482602086016117f7565b91505092915050565b6000813590506118c2816128b2565b92915050565b6000602082840312156118da57600080fd5b60006118e884828501611835565b91505092915050565b6000806040838503121561190457600080fd5b600061191285828601611835565b925050602061192385828601611835565b9150509250929050565b60008060006060848603121561194257600080fd5b600061195086828701611835565b935050602061196186828701611835565b9250506040611972868287016118b3565b9150509250925092565b6000806000806080858703121561199257600080fd5b60006119a087828801611835565b94505060206119b187828801611835565b93505060406119c2878288016118b3565b925050606085013567ffffffffffffffff8111156119df57600080fd5b6119eb87828801611889565b91505092959194509250565b60008060408385031215611a0a57600080fd5b6000611a1885828601611835565b9250506020611a298582860161184a565b9150509250929050565b60008060408385031215611a4657600080fd5b6000611a5485828601611835565b9250506020611a65858286016118b3565b9150509250929050565b600060208284031215611a8157600080fd5b6000611a8f8482850161185f565b91505092915050565b600060208284031215611aaa57600080fd5b6000611ab884828501611874565b91505092915050565b600060208284031215611ad357600080fd5b6000611ae1848285016118b3565b91505092915050565b611af3816121de565b82525050565b611b02816121f0565b82525050565b6000611b13826120e0565b611b1d81856120f6565b9350611b2d818560208601612261565b611b368161242d565b840191505092915050565b6000611b4c826120eb565b611b568185612107565b9350611b66818560208601612261565b611b6f8161242d565b840191505092915050565b6000611b85826120eb565b611b8f8185612118565b9350611b9f818560208601612261565b80840191505092915050565b6000611bb8603283612107565b9150611bc38261243e565b604082019050919050565b6000611bdb601c83612107565b9150611be68261248d565b602082019050919050565b6000611bfe602483612107565b9150611c09826124b6565b604082019050919050565b6000611c21601983612107565b9150611c2c82612505565b602082019050919050565b6000611c44602c83612107565b9150611c4f8261252e565b604082019050919050565b6000611c67603883612107565b9150611c728261257d565b604082019050919050565b6000611c8a602a83612107565b9150611c95826125cc565b604082019050919050565b6000611cad602983612107565b9150611cb88261261b565b604082019050919050565b6000611cd0602083612107565b9150611cdb8261266a565b602082019050919050565b6000611cf3603183612107565b9150611cfe82612693565b604082019050919050565b6000611d16602c83612107565b9150611d21826126e2565b604082019050919050565b6000611d39602983612107565b9150611d4482612731565b604082019050919050565b6000611d5c602f83612107565b9150611d6782612780565b604082019050919050565b6000611d7f602183612107565b9150611d8a826127cf565b604082019050919050565b6000611da2603183612107565b9150611dad8261281e565b604082019050919050565b611dc181612248565b82525050565b6000611dd38285611b7a565b9150611ddf8284611b7a565b91508190509392505050565b6000602082019050611e006000830184611aea565b92915050565b6000608082019050611e1b6000830187611aea565b611e286020830186611aea565b611e356040830185611db8565b8181036060830152611e478184611b08565b905095945050505050565b6000602082019050611e676000830184611af9565b92915050565b60006020820190508181036000830152611e878184611b41565b905092915050565b60006020820190508181036000830152611ea881611bab565b9050919050565b60006020820190508181036000830152611ec881611bce565b9050919050565b60006020820190508181036000830152611ee881611bf1565b9050919050565b60006020820190508181036000830152611f0881611c14565b9050919050565b60006020820190508181036000830152611f2881611c37565b9050919050565b60006020820190508181036000830152611f4881611c5a565b9050919050565b60006020820190508181036000830152611f6881611c7d565b9050919050565b60006020820190508181036000830152611f8881611ca0565b9050919050565b60006020820190508181036000830152611fa881611cc3565b9050919050565b60006020820190508181036000830152611fc881611ce6565b9050919050565b60006020820190508181036000830152611fe881611d09565b9050919050565b6000602082019050818103600083015261200881611d2c565b9050919050565b6000602082019050818103600083015261202881611d4f565b9050919050565b6000602082019050818103600083015261204881611d72565b9050919050565b6000602082019050818103600083015261206881611d95565b9050919050565b60006020820190506120846000830184611db8565b92915050565b60006120946120a5565b90506120a082826122c6565b919050565b6000604051905090565b600067ffffffffffffffff8211156120ca576120c96123fe565b5b6120d38261242d565b9050602081019050919050565b600081519050919050565b600081519050919050565b600082825260208201905092915050565b600082825260208201905092915050565b600081905092915050565b600061212e82612248565b915061213983612248565b9250827fffffffffffffffffffffffffffffffffffffffffffffffffffffffffffffffff0382111561216e5761216d612371565b5b828201905092915050565b600061218482612248565b915061218f83612248565b92508261219f5761219e6123a0565b5b828204905092915050565b60006121b582612248565b91506121c083612248565b9250828210156121d3576121d2612371565b5b828203905092915050565b60006121e982612228565b9050919050565b60008115159050919050565b60007fffffffff0000000000000000000000000000000000000000000000000000000082169050919050565b600073ffffffffffffffffffffffffffffffffffffffff82169050919050565b6000819050919050565b82818337600083830152505050565b60005b8381101561227f578082015181840152602081019050612264565b8381111561228e576000848401525b50505050565b600060028204905060018216806122ac57607f821691505b602082108114156122c0576122bf6123cf565b5b50919050565b6122cf8261242d565b810181811067ffffffffffffffff821117156122ee576122ed6123fe565b5b80604052505050565b600061230282612248565b91507fffffffffffffffffffffffffffffffffffffffffffffffffffffffffffffffff82141561233557612334612371565b5b600182019050919050565b600061234b82612248565b915061235683612248565b925082612366576123656123a0565b5b828206905092915050565b7f4e487b7100000000000000000000000000000000000000000000000000000000600052601160045260246000fd5b7f4e487b7100000000000000000000000000000000000000000000000000000000600052601260045260246000fd5b7f4e487b7100000000000000000000000000000000000000000000000000000000600052602260045260246000fd5b7f4e487b7100000000000000000000000000000000000000000000000000000000600052604160045260246000fd5b6000601f19601f8301169050919050565b7f4552433732313a207472616e7366657220746f206e6f6e20455243373231526560008201527f63656976657220696d706c656d656e7465720000000000000000000000000000602082015250565b7f4552433732313a20746f6b656e20616c7265616479206d696e74656400000000600082015250565b7f4552433732313a207472616e7366657220746f20746865207a65726f2061646460008201527f7265737300000000000000000000000000000000000000000000000000000000602082015250565b7f4552433732313a20617070726f766520746f2063616c6c657200000000000000600082015250565b7f4552433732313a206f70657261746f7220717565727920666f72206e6f6e657860008201527f697374656e7420746f6b656e0000000000000000000000000000000000000000602082015250565b7f4552433732313a20617070726f76652063616c6c6572206973206e6f74206f7760008201527f6e6572206e6f7220617070726f76656420666f7220616c6c0000000000000000602082015250565b7f4552433732313a2062616c616e636520717565727920666f7220746865207a6560008201527f726f206164647265737300000000000000000000000000000000000000000000602082015250565b7f4552433732313a206f776e657220717565727920666f72206e6f6e657869737460008201527f656e7420746f6b656e0000000000000000000000000000000000000000000000602082015250565b7f4552433732313a206d696e7420746f20746865207a65726f2061646472657373600082015250565b7f45524337323155524953746f726167653a2055524920717565727920666f722060008201527f6e6f6e6578697374656e7420746f6b656e000000000000000000000000000000602082015250565b7f4552433732313a20617070726f76656420717565727920666f72206e6f6e657860008201527f697374656e7420746f6b656e0000000000000000000000000000000000000000602082015250565b7f4552433732313a207472616e73666572206f6620746f6b656e2074686174206960008201527f73206e6f74206f776e0000000000000000000000000000000000000000000000602082015250565b7f4552433732314d657461646174613a2055524920717565727920666f72206e6f60008201527f6e6578697374656e7420746f6b656e0000000000000000000000000000000000602082015250565b7f4552433732313a20617070726f76616c20746f2063757272656e74206f776e6560008201527f7200000000000000000000000000000000000000000000000000000000000000602082015250565b7f4552433732313a207472616e736665722063616c6c6572206973206e6f74206f60008201527f776e6572206e6f7220617070726f766564000000000000000000000000000000602082015250565b612876816121de565b811461288157600080fd5b50565b61288d816121f0565b811461289857600080fd5b50565b6128a4816121fc565b81146128af57600080fd5b50565b6128bb81612248565b81146128c657600080fd5b5056fea26469706673582212202f221bbf855fbab65ca170c608263dc7f8de1e50f438f8a7a138caac69f6a11364736f6c63430008030033",
  "linkReferences": {},
  "deployedLinkReferences": {}
}